{
  "_format": "hh-sol-artifact-1",
  "contractName": "AnswerToEarn",
  "sourceName": "src/contracts/AnswerToEarn.sol",
  "abi": [
    {
      "inputs": [],
      "stateMutability": "nonpayable",
      "type": "constructor"
    },
    {
      "anonymous": false,
      "inputs": [
        {
          "indexed": false,
          "internalType": "uint256",
          "name": "id",
          "type": "uint256"
        },
        {
          "indexed": false,
          "internalType": "string",
          "name": "actionType",
          "type": "string"
        },
        {
          "indexed": true,
          "internalType": "address",
          "name": "executor",
          "type": "address"
        },
        {
          "indexed": false,
          "internalType": "uint256",
          "name": "timestamp",
          "type": "uint256"
        }
      ],
      "name": "Action",
      "type": "event"
    },
    {
      "inputs": [
        {
          "internalType": "uint256",
          "name": "questionId",
          "type": "uint256"
        },
        {
          "internalType": "string",
          "name": "_commentText",
          "type": "string"
        }
      ],
      "name": "addComment",
      "outputs": [
        {
          "internalType": "bool",
          "name": "",
          "type": "bool"
        }
      ],
      "stateMutability": "nonpayable",
      "type": "function"
    },
    {
      "inputs": [
        {
          "internalType": "string",
          "name": "questionTitle",
          "type": "string"
        },
        {
          "internalType": "string",
          "name": "questionDescription",
          "type": "string"
        },
        {
          "internalType": "string",
          "name": "tags",
          "type": "string"
        }
      ],
      "name": "addQuestion",
      "outputs": [],
      "stateMutability": "payable",
      "type": "function"
    },
    {
      "inputs": [
        {
          "internalType": "uint256",
          "name": "fee",
          "type": "uint256"
        }
      ],
      "name": "changeFee",
      "outputs": [],
      "stateMutability": "nonpayable",
      "type": "function"
    },
    {
      "inputs": [
        {
          "internalType": "uint256",
          "name": "questionId",
          "type": "uint256"
        },
        {
          "internalType": "uint256",
          "name": "id",
          "type": "uint256"
        }
      ],
      "name": "deleteComment",
      "outputs": [
        {
          "internalType": "bool",
          "name": "",
          "type": "bool"
        }
      ],
      "stateMutability": "nonpayable",
      "type": "function"
    },
    {
      "inputs": [
        {
          "internalType": "uint256",
          "name": "id",
          "type": "uint256"
        }
      ],
      "name": "deleteQuestion",
      "outputs": [
        {
          "internalType": "bool",
          "name": "",
          "type": "bool"
        }
      ],
      "stateMutability": "nonpayable",
      "type": "function"
    },
    {
      "inputs": [
        {
          "internalType": "uint256",
          "name": "questionId",
          "type": "uint256"
        }
      ],
      "name": "getComments",
      "outputs": [
        {
          "components": [
            {
              "internalType": "uint256",
              "name": "id",
              "type": "uint256"
            },
            {
              "internalType": "uint256",
              "name": "questionId",
              "type": "uint256"
            },
            {
              "internalType": "string",
              "name": "commentText",
              "type": "string"
            },
            {
              "internalType": "address",
              "name": "owner",
              "type": "address"
            },
            {
              "internalType": "bool",
              "name": "deleted",
              "type": "bool"
            },
            {
              "internalType": "uint256",
              "name": "created",
              "type": "uint256"
            },
            {
              "internalType": "uint256",
              "name": "updated",
              "type": "uint256"
            }
          ],
          "internalType": "struct AnswerToEarn.CommentStruct[]",
          "name": "",
          "type": "tuple[]"
        }
      ],
      "stateMutability": "view",
      "type": "function"
    },
    {
      "inputs": [
        {
          "internalType": "uint256",
          "name": "questionId",
          "type": "uint256"
        },
        {
          "internalType": "uint256",
          "name": "id",
          "type": "uint256"
        }
      ],
      "name": "getcomment",
      "outputs": [
        {
          "components": [
            {
              "internalType": "uint256",
              "name": "id",
              "type": "uint256"
            },
            {
              "internalType": "uint256",
              "name": "questionId",
              "type": "uint256"
            },
            {
              "internalType": "string",
              "name": "commentText",
              "type": "string"
            },
            {
              "internalType": "address",
              "name": "owner",
              "type": "address"
            },
            {
              "internalType": "bool",
              "name": "deleted",
              "type": "bool"
            },
            {
              "internalType": "uint256",
              "name": "created",
              "type": "uint256"
            },
            {
              "internalType": "uint256",
              "name": "updated",
              "type": "uint256"
            }
          ],
          "internalType": "struct AnswerToEarn.CommentStruct",
          "name": "",
          "type": "tuple"
        }
      ],
      "stateMutability": "view",
      "type": "function"
    },
    {
      "inputs": [
        {
          "internalType": "uint256",
          "name": "id",
          "type": "uint256"
        },
        {
          "internalType": "uint256",
          "name": "questionId",
          "type": "uint256"
        }
      ],
      "name": "isCommentOwner",
      "outputs": [
        {
          "internalType": "bool",
          "name": "",
          "type": "bool"
        }
      ],
      "stateMutability": "view",
      "type": "function"
    },
    {
      "inputs": [
        {
          "internalType": "uint256",
          "name": "id",
          "type": "uint256"
        }
      ],
      "name": "isQuestionOwner",
      "outputs": [
        {
          "internalType": "bool",
          "name": "",
          "type": "bool"
        }
      ],
      "stateMutability": "view",
      "type": "function"
    },
    {
      "inputs": [],
      "name": "owner",
      "outputs": [
        {
          "internalType": "address",
          "name": "",
          "type": "address"
        }
      ],
      "stateMutability": "view",
      "type": "function"
    },
    {
      "inputs": [
        {
          "internalType": "uint256",
          "name": "questionId",
          "type": "uint256"
        },
        {
          "internalType": "uint256",
          "name": "id",
          "type": "uint256"
        }
      ],
      "name": "payBestComment",
      "outputs": [],
      "stateMutability": "nonpayable",
      "type": "function"
    },
    {
      "inputs": [],
      "name": "platformCharge",
      "outputs": [
        {
          "internalType": "uint256",
          "name": "",
          "type": "uint256"
        }
      ],
      "stateMutability": "view",
      "type": "function"
    },
    {
      "inputs": [
        {
          "internalType": "uint256",
          "name": "",
          "type": "uint256"
        }
      ],
      "name": "questions",
      "outputs": [
        {
          "internalType": "uint256",
          "name": "id",
          "type": "uint256"
        },
        {
          "internalType": "string",
          "name": "questionTitle",
          "type": "string"
        },
        {
          "internalType": "string",
          "name": "questionDescription",
          "type": "string"
        },
        {
          "internalType": "address",
          "name": "owner",
          "type": "address"
        },
        {
          "internalType": "address",
          "name": "winner",
          "type": "address"
        },
        {
          "internalType": "bool",
          "name": "paidout",
          "type": "bool"
        },
        {
          "internalType": "bool",
          "name": "refunded",
          "type": "bool"
        },
        {
          "internalType": "bool",
          "name": "deleted",
          "type": "bool"
        },
        {
          "internalType": "uint256",
          "name": "updated",
          "type": "uint256"
        },
        {
          "internalType": "uint256",
          "name": "created",
          "type": "uint256"
        },
        {
          "internalType": "uint256",
          "name": "answers",
          "type": "uint256"
        },
        {
          "internalType": "string",
          "name": "tags",
          "type": "string"
        },
        {
          "internalType": "uint256",
          "name": "prize",
          "type": "uint256"
        }
      ],
      "stateMutability": "view",
      "type": "function"
    },
    {
      "inputs": [
        {
          "internalType": "uint256",
          "name": "questionId",
          "type": "uint256"
        }
      ],
      "name": "refund",
      "outputs": [],
      "stateMutability": "nonpayable",
      "type": "function"
    },
    {
      "inputs": [
        {
          "internalType": "uint256",
          "name": "id",
          "type": "uint256"
        }
      ],
      "name": "showQuestion",
      "outputs": [
        {
          "components": [
            {
              "internalType": "uint256",
              "name": "id",
              "type": "uint256"
            },
            {
              "internalType": "string",
              "name": "questionTitle",
              "type": "string"
            },
            {
              "internalType": "string",
              "name": "questionDescription",
              "type": "string"
            },
            {
              "internalType": "address",
              "name": "owner",
              "type": "address"
            },
            {
              "internalType": "address",
              "name": "winner",
              "type": "address"
            },
            {
              "internalType": "bool",
              "name": "paidout",
              "type": "bool"
            },
            {
              "internalType": "bool",
              "name": "refunded",
              "type": "bool"
            },
            {
              "internalType": "bool",
              "name": "deleted",
              "type": "bool"
            },
            {
              "internalType": "uint256",
              "name": "updated",
              "type": "uint256"
            },
            {
              "internalType": "uint256",
              "name": "created",
              "type": "uint256"
            },
            {
              "internalType": "uint256",
              "name": "answers",
              "type": "uint256"
            },
            {
              "internalType": "string",
              "name": "tags",
              "type": "string"
            },
            {
              "internalType": "uint256",
              "name": "prize",
              "type": "uint256"
            }
          ],
          "internalType": "struct AnswerToEarn.QuestionStruct",
          "name": "",
          "type": "tuple"
        }
      ],
      "stateMutability": "view",
      "type": "function"
    },
    {
      "inputs": [],
      "name": "showQuestions",
      "outputs": [
        {
          "components": [
            {
              "internalType": "uint256",
              "name": "id",
              "type": "uint256"
            },
            {
              "internalType": "string",
              "name": "questionTitle",
              "type": "string"
            },
            {
              "internalType": "string",
              "name": "questionDescription",
              "type": "string"
            },
            {
              "internalType": "address",
              "name": "owner",
              "type": "address"
            },
            {
              "internalType": "address",
              "name": "winner",
              "type": "address"
            },
            {
              "internalType": "bool",
              "name": "paidout",
              "type": "bool"
            },
            {
              "internalType": "bool",
              "name": "refunded",
              "type": "bool"
            },
            {
              "internalType": "bool",
              "name": "deleted",
              "type": "bool"
            },
            {
              "internalType": "uint256",
              "name": "updated",
              "type": "uint256"
            },
            {
              "internalType": "uint256",
              "name": "created",
              "type": "uint256"
            },
            {
              "internalType": "uint256",
              "name": "answers",
              "type": "uint256"
            },
            {
              "internalType": "string",
              "name": "tags",
              "type": "string"
            },
            {
              "internalType": "uint256",
              "name": "prize",
              "type": "uint256"
            }
          ],
          "internalType": "struct AnswerToEarn.QuestionStruct[]",
          "name": "propQuestion",
          "type": "tuple[]"
        }
      ],
      "stateMutability": "view",
      "type": "function"
    },
    {
      "inputs": [],
      "name": "totalQuestion",
      "outputs": [
        {
          "internalType": "uint256",
          "name": "",
          "type": "uint256"
        }
      ],
      "stateMutability": "view",
      "type": "function"
    },
    {
      "inputs": [
        {
          "internalType": "uint256",
          "name": "questionId",
          "type": "uint256"
        },
        {
          "internalType": "uint256",
          "name": "id",
          "type": "uint256"
        },
        {
          "internalType": "string",
          "name": "_commentText",
          "type": "string"
        }
      ],
      "name": "updateComment",
      "outputs": [
        {
          "internalType": "bool",
          "name": "",
          "type": "bool"
        }
      ],
      "stateMutability": "nonpayable",
      "type": "function"
    },
    {
      "inputs": [
        {
          "internalType": "uint256",
          "name": "id",
          "type": "uint256"
        },
        {
          "internalType": "string",
          "name": "questionTitle",
          "type": "string"
        },
        {
          "internalType": "string",
          "name": "questionDescription",
          "type": "string"
        },
        {
          "internalType": "string",
          "name": "tags",
          "type": "string"
        }
      ],
      "name": "updateQuestion",
      "outputs": [
        {
          "internalType": "bool",
          "name": "",
          "type": "bool"
        }
      ],
      "stateMutability": "nonpayable",
      "type": "function"
    }
  ],
  "bytecode": "0x6080604052600560015534801561001557600080fd5b50600080546001600160a01b03191633179055612968806100376000396000f3fe6080604052600436106101145760003560e01c806381e1dc94116100a0578063aa7e568311610064578063aa7e568314610332578063be66b5a514610352578063c4e04de11461037f578063d397b44f1461039f578063ef9458ff146103c157600080fd5b806381e1dc94146102765780638b142225146102965780638d045bd3146102ba5780638da5cb5b146102da5780639a3c4c791461031257600080fd5b806331a4bcb5116100e757806331a4bcb5146101ca57806331b1b978146101ea57806346362208146102235780636619bfda146102435780636a1db1bf1461025657600080fd5b8063121253e71461011957806318140e0e1461014e57806323edf6971461017b578063278ecde1146101a8575b600080fd5b34801561012557600080fd5b50610139610134366004612231565b6103d7565b60405190151581526020015b60405180910390f35b34801561015a57600080fd5b5061016e610169366004612281565b610597565b6040516101459190612357565b34801561018757600080fd5b5061019b610196366004612371565b6106bf565b604051610145919061238a565b3480156101b457600080fd5b506101c86101c3366004612371565b610817565b005b3480156101d657600080fd5b506101396101e5366004612281565b610a29565b3480156101f657600080fd5b5061020a610205366004612371565b610bc7565b6040516101459d9c9b9a999897969594939291906123ec565b34801561022f57600080fd5b5061013961023e366004612371565b610dee565b6101c861025136600461248e565b610e28565b34801561026257600080fd5b506101c8610271366004612371565b6110fc565b34801561028257600080fd5b5061013961029136600461250c565b611188565b3480156102a257600080fd5b506102ac60015481565b604051908152602001610145565b3480156102c657600080fd5b506101c86102d5366004612281565b6113cf565b3480156102e657600080fd5b506000546102fa906001600160a01b031681565b6040516001600160a01b039091168152602001610145565b34801561031e57600080fd5b5061013961032d366004612371565b611609565b34801561033e57600080fd5b5061013961034d36600461259e565b611778565b34801561035e57600080fd5b5061037261036d366004612371565b611951565b60405161014591906126e5565b34801561038b57600080fd5b5061013961039a366004612281565b611bcf565b3480156103ab57600080fd5b506103b4611c15565b60405161014591906126f8565b3480156103cd57600080fd5b506102ac60025481565b60008381526003602052604081205460ff1661040e5760405162461bcd60e51b81526004016104059061274d565b60405180910390fd5b600084815260046020526040902080548490811061042e5761042e612779565b60009182526020909120600690910201600301546001600160a01b031633146104695760405162461bcd60e51b81526004016104059061278f565b60008251116104ac5760405162461bcd60e51b815260206004820152600f60248201526e5265717569726564206669656c642160881b6044820152606401610405565b60008481526004602052604090208054839190859081106104cf576104cf612779565b906000526020600020906006020160020190805190602001906104f392919061202d565b50600084815260046020526040902080544291908590811061051757610517612779565b906000526020600020906006020160050181905550336001600160a01b03166000805160206129138339815191528442604051610585929190918252606060208301819052600f908301526e18dbdb5b595b9d081d5c19185d1959608a1b6080830152604082015260a00190565b60405180910390a25060019392505050565b61059f6120b1565b60008381526004602052604090208054839081106105bf576105bf612779565b90600052602060002090600602016040518060e001604052908160008201548152602001600182015481526020016002820180546105fc906127bc565b80601f0160208091040260200160405190810160405280929190818152602001828054610628906127bc565b80156106755780601f1061064a57610100808354040283529160200191610675565b820191906000526020600020905b81548152906001019060200180831161065857829003601f168201915b505050918352505060038201546001600160a01b0381166020830152600160a01b900460ff1615156040820152600482015460608201526005909101546080909101529392505050565b606060046000838152602001908152602001600020805480602002602001604051908101604052809291908181526020016000905b8282101561080c57838290600052602060002090600602016040518060e0016040529081600082015481526020016001820154815260200160028201805461073b906127bc565b80601f0160208091040260200160405190810160405280929190818152602001828054610767906127bc565b80156107b45780601f10610789576101008083540402835291602001916107b4565b820191906000526020600020905b81548152906001019060200180831161079757829003601f168201915b505050918352505060038201546001600160a01b038116602080840191909152600160a01b90910460ff16151560408301526004830154606083015260059092015460809091015290825260019290920191016106f4565b505050509050919050565b60008181526003602052604090205460ff166108455760405162461bcd60e51b81526004016104059061274d565b6005818154811061085857610858612779565b90600052602060002090600a020160040160149054906101000a900460ff16156108c05760405162461bcd60e51b8152602060048201526019602482015278145d595cdd1a5bdb88185b1c9958591e481c185a59081bdd5d603a1b6044820152606401610405565b600581815481106108d3576108d3612779565b90600052602060002090600a020160040160159054906101000a900460ff16156109385760405162461bcd60e51b815260206004820152601660248201527513dddb995c88185b1c9958591e481c99599d5b99195960521b6044820152606401610405565b6005818154811061094b5761094b612779565b60009182526020909120600a90910201600301546001600160a01b031633146109865760405162461bcd60e51b81526004016104059061278f565b60006005828154811061099b5761099b612779565b90600052602060002090600a02016009015490506001600583815481106109c4576109c4612779565b90600052602060002090600a020160040160156101000a81548160ff021916908315150217905550610a2560058381548110610a0257610a02612779565b600091825260209091206003600a9092020101546001600160a01b031682611fc8565b5050565b60008281526003602052604081205460ff16610a575760405162461bcd60e51b81526004016104059061274d565b6000838152600460205260409020805483908110610a7757610a77612779565b60009182526020909120600690910201600301546001600160a01b03163314610ab25760405162461bcd60e51b81526004016104059061278f565b600083815260046020526040902080546001919084908110610ad657610ad6612779565b906000526020600020906006020160030160146101000a81548160ff02191690831515021790555042600460008581526020019081526020016000208381548110610b2357610b23612779565b90600052602060002090600602016005018190555060058381548110610b4b57610b4b612779565b6000918252602082206007600a9092020101805491610b698361280d565b909155505060408051838152606060208201819052600f908201526e18dbdb5b595b9d0819195b195d1959608a1b6080820152428183015290513391600080516020612913833981519152919081900360a00190a250600192915050565b60058181548110610bd757600080fd5b60009182526020909120600a90910201805460018201805491935090610bfc906127bc565b80601f0160208091040260200160405190810160405280929190818152602001828054610c28906127bc565b8015610c755780601f10610c4a57610100808354040283529160200191610c75565b820191906000526020600020905b815481529060010190602001808311610c5857829003601f168201915b505050505090806002018054610c8a906127bc565b80601f0160208091040260200160405190810160405280929190818152602001828054610cb6906127bc565b8015610d035780601f10610cd857610100808354040283529160200191610d03565b820191906000526020600020905b815481529060010190602001808311610ce657829003601f168201915b5050506003840154600485015460058601546006870154600788015460088901805498996001600160a01b0396871699968616985060ff600160a01b870481169850600160a81b8704811697600160b01b9097041695909190610d65906127bc565b80601f0160208091040260200160405190810160405280929190818152602001828054610d91906127bc565b8015610dde5780601f10610db357610100808354040283529160200191610dde565b820191906000526020600020905b815481529060010190602001808311610dc157829003601f168201915b505050505090806009015490508d565b600060058281548110610e0357610e03612779565b60009182526020909120600a90910201600301546001600160a01b0316331492915050565b6000835111610e495760405162461bcd60e51b815260040161040590612824565b6000825111610e6a5760405162461bcd60e51b815260040161040590612824565b6000815111610e8b5760405162461bcd60e51b815260040161040590612824565b60003411610ecf5760405162461bcd60e51b8152602060048201526011602482015270125b9cdd59999a58da595b9d08199d5b99607a1b6044820152606401610405565b610ed76120f9565b6005546000908152600360205260408120805460ff191660011790556002805491610f0183612852565b9091555050600580548083526020808401878152604085018790526101608501869052346101808601523360608601524261010086018190526101208601526001830184556000939093528351600a9092027f036b6384b5eca791c62761152d0c79bb0604c104a5fb6f4eb0703f3154bb3db08101928355925180518594610faf937f036b6384b5eca791c62761152d0c79bb0604c104a5fb6f4eb0703f3154bb3db190910192019061202d565b5060408201518051610fcb91600284019160209091019061202d565b5060608201516003820180546001600160a01b039283166001600160a01b0319909116179055608083015160048301805460a086015160c087015160e08801511515600160b01b0260ff60b01b19911515600160a81b029190911661ffff60a81b19921515600160a01b026001600160a81b03199094169590961694909417919091171692909217179055610100820151600582015561012082015160068201556101408201516007820155610160820151805161109391600884019160209091019061202d565b506101809190910151600990910155600554604080519182526060602083018190526010908301526f145d595cdd1a5bdb8818dc99585d195960821b6080830152429082015233906000805160206129138339815191529060a00160405180910390a250505050565b6000546001600160a01b031633146111265760405162461bcd60e51b81526004016104059061278f565b600081118015611137575060648111155b6111835760405162461bcd60e51b815260206004820152601b60248201527f466565206d757374206265206265747765656e2031202d2031303000000000006044820152606401610405565b600155565b60008481526003602052604081205460ff1615156001146111bb5760405162461bcd60e51b81526004016104059061286d565b60008451116111dc5760405162461bcd60e51b815260040161040590612824565b60008251116111fd5760405162461bcd60e51b815260040161040590612824565b600083511161121e5760405162461bcd60e51b815260040161040590612824565b6005858154811061123157611231612779565b60009182526020909120600a90910201600301546001600160a01b0316331461128e5760405162461bcd60e51b815260206004820152600f60248201526e496e76616c696420616374696f6e2160881b6044820152606401610405565b83600586815481106112a2576112a2612779565b90600052602060002090600a020160010190805190602001906112c692919061202d565b5081600586815481106112db576112db612779565b90600052602060002090600a020160080190805190602001906112ff92919061202d565b50826005868154811061131457611314612779565b90600052602060002090600a0201600201908051906020019061133892919061202d565b50426005868154811061134d5761134d612779565b90600052602060002090600a020160050181905550336001600160a01b031660008051602061291383398151915286426040516113bc9291909182526060602083018190526010908301526f145d595cdd1a5bdb881d5c19185d195960821b6080830152604082015260a00190565b60405180910390a2506001949350505050565b60008281526003602052604090205460ff166113fd5760405162461bcd60e51b81526004016104059061274d565b6005828154811061141057611410612779565b90600052602060002090600a020160040160149054906101000a900460ff16156114785760405162461bcd60e51b8152602060048201526019602482015278145d595cdd1a5bdb88185b1c9958591e481c185a59081bdd5d603a1b6044820152606401610405565b6005828154811061148b5761148b612779565b60009182526020909120600a90910201600301546001600160a01b031633146114c65760405162461bcd60e51b81526004016104059061278f565b6000600583815481106114db576114db612779565b90600052602060002090600a0201600901549050600060646001548361150191906128ba565b61150b91906128d9565b6000858152600460205260408120805492935090918590811061153057611530612779565b906000526020600020906006020160030160009054906101000a90046001600160a01b0316905060016005868154811061156c5761156c612779565b90600052602060002090600a020160040160146101000a81548160ff02191690831515021790555080600586815481106115a8576115a8612779565b60009182526020909120600a9091020160040180546001600160a01b0319166001600160a01b03929092169190911790556115ec816115e784866128fb565b611fc8565b600054611602906001600160a01b031683611fc8565b5050505050565b60006005828154811061161e5761161e612779565b60009182526020909120600a90910201600301546001600160a01b0316331461167b5760405162461bcd60e51b815260206004820152600f60248201526e496e76616c696420616374696f6e2160881b6044820152606401610405565b60008281526003602052604090205460ff1615156001146116ae5760405162461bcd60e51b81526004016104059061286d565b600280549060006116be8361280d565b91905055506001600583815481106116d8576116d8612779565b60009182526020808320600a92909202909101600401805460ff60b01b1916600160b01b941515949094029390931790925583815260038252604090819020805460ff19169055805184815260609281018390526010928101929092526f145d595cdd1a5bdb8819195b195d195960821b6080830152429082015233906000805160206129138339815191529060a00160405180910390a2506001919050565b600060018251116117bd5760405162461bcd60e51b815260206004820152600f60248201526e5265717569726564206669656c642160881b6044820152606401610405565b60008381526003602052604090205460ff1615156001146117f05760405162461bcd60e51b81526004016104059061286d565b6117f86120b1565b600084815260046020908152604091829020548352820185905281018390523360608201524260a0820181905260c0820152600580548590811061183e5761183e612779565b6000918252602082206007600a909202010180549161185c83612852565b90915550506000848152600460209081526040808320805460018181018355918552938390208551600690950201938455848301519084015583015180518493926118ae92600285019291019061202d565b50606082015160038201805460808501511515600160a01b026001600160a81b03199091166001600160a01b039093169290921791909117905560a0820151600482015560c090910151600590910155805160405133916000805160206129138339815191529161058591904290918252606060208301819052600f908301526e18dbdb5b595b9d0818dc99585d1959608a1b6080830152604082015260a00190565b6119596120f9565b6005828154811061196c5761196c612779565b90600052602060002090600a0201604051806101a0016040529081600082015481526020016001820180546119a0906127bc565b80601f01602080910402602001604051908101604052809291908181526020018280546119cc906127bc565b8015611a195780601f106119ee57610100808354040283529160200191611a19565b820191906000526020600020905b8154815290600101906020018083116119fc57829003601f168201915b50505050508152602001600282018054611a32906127bc565b80601f0160208091040260200160405190810160405280929190818152602001828054611a5e906127bc565b8015611aab5780601f10611a8057610100808354040283529160200191611aab565b820191906000526020600020905b815481529060010190602001808311611a8e57829003601f168201915b505050918352505060038201546001600160a01b0390811660208301526004830154908116604083015260ff600160a01b8204811615156060840152600160a81b8204811615156080840152600160b01b90910416151560a0820152600582015460c0820152600682015460e0820152600782015461010082015260088201805461012090920191611b3c906127bc565b80601f0160208091040260200160405190810160405280929190818152602001828054611b68906127bc565b8015611bb55780601f10611b8a57610100808354040283529160200191611bb5565b820191906000526020600020905b815481529060010190602001808311611b9857829003601f168201915b505050505081526020016009820154815250509050919050565b6000818152600460205260408120805484908110611bef57611bef612779565b60009182526020909120600690910201600301546001600160a01b031633149392505050565b60606000805b600554811015611c7b5760058181548110611c3857611c38612779565b90600052602060002090600a020160040160169054906101000a900460ff16611c695781611c6581612852565b9250505b80611c7381612852565b915050611c1b565b508067ffffffffffffffff811115611c9557611c9561218e565b604051908082528060200260200182016040528015611cce57816020015b611cbb6120f9565b815260200190600190039081611cb35790505b5091506000805b600554811015611fc25760058181548110611cf257611cf2612779565b90600052602060002090600a020160040160169054906101000a900460ff16611fb05760058181548110611d2857611d28612779565b90600052602060002090600a0201604051806101a001604052908160008201548152602001600182018054611d5c906127bc565b80601f0160208091040260200160405190810160405280929190818152602001828054611d88906127bc565b8015611dd55780601f10611daa57610100808354040283529160200191611dd5565b820191906000526020600020905b815481529060010190602001808311611db857829003601f168201915b50505050508152602001600282018054611dee906127bc565b80601f0160208091040260200160405190810160405280929190818152602001828054611e1a906127bc565b8015611e675780601f10611e3c57610100808354040283529160200191611e67565b820191906000526020600020905b815481529060010190602001808311611e4a57829003601f168201915b505050918352505060038201546001600160a01b0390811660208301526004830154908116604083015260ff600160a01b8204811615156060840152600160a81b8204811615156080840152600160b01b90910416151560a0820152600582015460c0820152600682015460e0820152600782015461010082015260088201805461012090920191611ef8906127bc565b80601f0160208091040260200160405190810160405280929190818152602001828054611f24906127bc565b8015611f715780601f10611f4657610100808354040283529160200191611f71565b820191906000526020600020905b815481529060010190602001808311611f5457829003601f168201915b50505050508152602001600982015481525050848381518110611f9657611f96612779565b60200260200101819052508180611fac90612852565b9250505b80611fba81612852565b915050611cd5565b50505090565b6000826001600160a01b03168260405160006040518083038185875af1925050503d8060008114612015576040519150601f19603f3d011682016040523d82523d6000602084013e61201a565b606091505b505090508061202857600080fd5b505050565b828054612039906127bc565b90600052602060002090601f01602090048101928261205b57600085556120a1565b82601f1061207457805160ff19168380011785556120a1565b828001600101855582156120a1579182015b828111156120a1578251825591602001919060010190612086565b506120ad929150612179565b5090565b6040518060e0016040528060008152602001600081526020016060815260200160006001600160a01b0316815260200160001515815260200160008152602001600081525090565b604051806101a0016040528060008152602001606081526020016060815260200160006001600160a01b0316815260200160006001600160a01b0316815260200160001515815260200160001515815260200160001515815260200160008152602001600081526020016000815260200160608152602001600081525090565b5b808211156120ad576000815560010161217a565b634e487b7160e01b600052604160045260246000fd5b600082601f8301126121b557600080fd5b813567ffffffffffffffff808211156121d0576121d061218e565b604051601f8301601f19908116603f011681019082821181831017156121f8576121f861218e565b8160405283815286602085880101111561221157600080fd5b836020870160208301376000602085830101528094505050505092915050565b60008060006060848603121561224657600080fd5b8335925060208401359150604084013567ffffffffffffffff81111561226b57600080fd5b612277868287016121a4565b9150509250925092565b6000806040838503121561229457600080fd5b50508035926020909101359150565b6000815180845260005b818110156122c9576020818501810151868301820152016122ad565b818111156122db576000602083870101525b50601f01601f19169290920160200192915050565b80518252602081015160208301526000604082015160e0604085015261231960e08501826122a3565b6060848101516001600160a01b03169086015260808085015115159086015260a0848101519086015260c09384015193909401929092525090919050565b60208152600061236a60208301846122f0565b9392505050565b60006020828403121561238357600080fd5b5035919050565b6000602080830181845280855180835260408601915060408160051b870101925083870160005b828110156123df57603f198886030184526123cd8583516122f0565b945092850192908501906001016123b1565b5092979650505050505050565b8d81526101a0602082015260006124076101a083018f6122a3565b8281036040840152612419818f6122a3565b6001600160a01b038e811660608601528d16608085015290508a151560a084015289151560c084015288151560e084015287610100840152866101208401528561014084015282810361016084015261247281866122a3565b915050826101808301529e9d5050505050505050505050505050565b6000806000606084860312156124a357600080fd5b833567ffffffffffffffff808211156124bb57600080fd5b6124c7878388016121a4565b945060208601359150808211156124dd57600080fd5b6124e9878388016121a4565b935060408601359150808211156124ff57600080fd5b50612277868287016121a4565b6000806000806080858703121561252257600080fd5b84359350602085013567ffffffffffffffff8082111561254157600080fd5b61254d888389016121a4565b9450604087013591508082111561256357600080fd5b61256f888389016121a4565b9350606087013591508082111561258557600080fd5b50612592878288016121a4565b91505092959194509250565b600080604083850312156125b157600080fd5b82359150602083013567ffffffffffffffff8111156125cf57600080fd5b6125db858286016121a4565b9150509250929050565b60006101a0825184526020830151816020860152612605828601826122a3565b9150506040830151848203604086015261261f82826122a3565b915050606083015161263c60608601826001600160a01b03169052565b50608083015161265760808601826001600160a01b03169052565b5060a083015161266b60a086018215159052565b5060c083015161267f60c086018215159052565b5060e083015161269360e086018215159052565b5061010083810151908501526101208084015190850152610140808401519085015261016080840151858303828701526126cd83826122a3565b61018095860151969095019590955250919392505050565b60208152600061236a60208301846125e5565b6000602080830181845280855180835260408601915060408160051b870101925083870160005b828110156123df57603f1988860301845261273b8583516125e5565b9450928501929085019060010161271f565b602080825260129082015271145d595cdd1a5bdb881b9bdd08199bdd5b9960721b604082015260600190565b634e487b7160e01b600052603260045260246000fd5b602080825260139082015272556e617574686f72697a656420656e7469747960681b604082015260600190565b600181811c908216806127d057607f821691505b602082108114156127f157634e487b7160e01b600052602260045260246000fd5b50919050565b634e487b7160e01b600052601160045260246000fd5b60008161281c5761281c6127f7565b506000190190565b60208082526014908201527346696c6c20757020656d707479206669656c647360601b604082015260600190565b6000600019821415612866576128666127f7565b5060010190565b6020808252602d908201527f5175657374696f6e20646f6573206e6f74206578697374206f7220686176652060408201526c6265656e2072656d6f7665642160981b606082015260800190565b60008160001904831182151516156128d4576128d46127f7565b500290565b6000826128f657634e487b7160e01b600052601260045260246000fd5b500490565b60008282101561290d5761290d6127f7565b50039056feaee8e5d3bbb2f71a951b5632cee20f7ac487b9f8ab4f66a236f7694b13af7c6aa26469706673582212208710410892a5ef16b4636ac0414eb94f5804f7e8685ea2536d8742c45bd5238664736f6c634300080b0033",
  "linkReferences": {},
  "deployedLinkReferences": {}
}