{
  "_format": "hh-sol-artifact-1",
  "contractName": "AnswerToEarn",
  "sourceName": "src/contracts/AnswerToEarn.sol",
  "abi": [
    {
      "inputs": [],
      "stateMutability": "nonpayable",
      "type": "constructor"
    },
    {
      "anonymous": false,
      "inputs": [
        {
          "indexed": false,
          "internalType": "uint256",
          "name": "id",
          "type": "uint256"
        },
        {
          "indexed": false,
          "internalType": "string",
          "name": "actionType",
          "type": "string"
        },
        {
          "indexed": true,
          "internalType": "address",
          "name": "executor",
          "type": "address"
        },
        {
          "indexed": false,
          "internalType": "uint256",
          "name": "timestamp",
          "type": "uint256"
        }
      ],
      "name": "Action",
      "type": "event"
    },
    {
      "inputs": [
        {
          "internalType": "uint256",
          "name": "questionId",
          "type": "uint256"
        },
        {
          "internalType": "string",
          "name": "_commentText",
          "type": "string"
        }
      ],
      "name": "addComment",
      "outputs": [
        {
          "internalType": "bool",
          "name": "",
          "type": "bool"
        }
      ],
      "stateMutability": "nonpayable",
      "type": "function"
    },
    {
      "inputs": [
        {
          "internalType": "string",
          "name": "questionTitle",
          "type": "string"
        },
        {
          "internalType": "string",
          "name": "questionDescription",
          "type": "string"
        },
        {
          "internalType": "string",
          "name": "tags",
          "type": "string"
        }
      ],
      "name": "addQuestion",
      "outputs": [
        {
          "internalType": "bool",
          "name": "",
          "type": "bool"
        }
      ],
      "stateMutability": "nonpayable",
      "type": "function"
    },
    {
      "inputs": [
        {
          "internalType": "uint256",
          "name": "questionId",
          "type": "uint256"
        },
        {
          "internalType": "uint256",
          "name": "id",
          "type": "uint256"
        }
      ],
      "name": "deleteComment",
      "outputs": [
        {
          "internalType": "bool",
          "name": "",
          "type": "bool"
        }
      ],
      "stateMutability": "nonpayable",
      "type": "function"
    },
    {
      "inputs": [
        {
          "internalType": "uint256",
          "name": "id",
          "type": "uint256"
        }
      ],
      "name": "deleteQuestion",
      "outputs": [
        {
          "internalType": "bool",
          "name": "",
          "type": "bool"
        }
      ],
      "stateMutability": "nonpayable",
      "type": "function"
    },
    {
      "inputs": [
        {
          "internalType": "uint256",
          "name": "questionId",
          "type": "uint256"
        }
      ],
      "name": "getComments",
      "outputs": [
        {
          "components": [
            {
              "internalType": "uint256",
              "name": "id",
              "type": "uint256"
            },
            {
              "internalType": "uint256",
              "name": "questionId",
              "type": "uint256"
            },
            {
              "internalType": "string",
              "name": "commentText",
              "type": "string"
            },
            {
              "internalType": "address",
              "name": "owner",
              "type": "address"
            },
            {
              "internalType": "bool",
              "name": "deleted",
              "type": "bool"
            },
            {
              "internalType": "uint256",
              "name": "created",
              "type": "uint256"
            },
            {
              "internalType": "uint256",
              "name": "updated",
              "type": "uint256"
            }
          ],
          "internalType": "struct AnswerToEarn.CommentStruct[]",
          "name": "",
          "type": "tuple[]"
        }
      ],
      "stateMutability": "view",
      "type": "function"
    },
    {
      "inputs": [
        {
          "internalType": "uint256",
          "name": "questionId",
          "type": "uint256"
        },
        {
          "internalType": "uint256",
          "name": "id",
          "type": "uint256"
        }
      ],
      "name": "getcomment",
      "outputs": [
        {
          "components": [
            {
              "internalType": "uint256",
              "name": "id",
              "type": "uint256"
            },
            {
              "internalType": "uint256",
              "name": "questionId",
              "type": "uint256"
            },
            {
              "internalType": "string",
              "name": "commentText",
              "type": "string"
            },
            {
              "internalType": "address",
              "name": "owner",
              "type": "address"
            },
            {
              "internalType": "bool",
              "name": "deleted",
              "type": "bool"
            },
            {
              "internalType": "uint256",
              "name": "created",
              "type": "uint256"
            },
            {
              "internalType": "uint256",
              "name": "updated",
              "type": "uint256"
            }
          ],
          "internalType": "struct AnswerToEarn.CommentStruct",
          "name": "",
          "type": "tuple"
        }
      ],
      "stateMutability": "view",
      "type": "function"
    },
    {
      "inputs": [
        {
          "internalType": "uint256",
          "name": "id",
          "type": "uint256"
        },
        {
          "internalType": "uint256",
          "name": "questionId",
          "type": "uint256"
        }
      ],
      "name": "isCommentOwner",
      "outputs": [
        {
          "internalType": "bool",
          "name": "",
          "type": "bool"
        }
      ],
      "stateMutability": "view",
      "type": "function"
    },
    {
      "inputs": [
        {
          "internalType": "uint256",
          "name": "id",
          "type": "uint256"
        }
      ],
      "name": "isQuestionOwner",
      "outputs": [
        {
          "internalType": "bool",
          "name": "",
          "type": "bool"
        }
      ],
      "stateMutability": "view",
      "type": "function"
    },
    {
      "inputs": [],
      "name": "owner",
      "outputs": [
        {
          "internalType": "address",
          "name": "",
          "type": "address"
        }
      ],
      "stateMutability": "view",
      "type": "function"
    },
    {
      "inputs": [
        {
          "internalType": "uint256",
          "name": "questionId",
          "type": "uint256"
        },
        {
          "internalType": "uint256",
          "name": "id",
          "type": "uint256"
        },
        {
          "internalType": "uint256",
          "name": "amount",
          "type": "uint256"
        }
      ],
      "name": "payBestComment",
      "outputs": [
        {
          "internalType": "bool",
          "name": "",
          "type": "bool"
        }
      ],
      "stateMutability": "payable",
      "type": "function"
    },
    {
      "inputs": [
        {
          "internalType": "uint256",
          "name": "",
          "type": "uint256"
        }
      ],
      "name": "questions",
      "outputs": [
        {
          "internalType": "uint256",
          "name": "id",
          "type": "uint256"
        },
        {
          "internalType": "string",
          "name": "questionTitle",
          "type": "string"
        },
        {
          "internalType": "string",
          "name": "questionDescription",
          "type": "string"
        },
        {
          "internalType": "address",
          "name": "owner",
          "type": "address"
        },
        {
          "internalType": "bool",
          "name": "deleted",
          "type": "bool"
        },
        {
          "internalType": "uint256",
          "name": "updated",
          "type": "uint256"
        },
        {
          "internalType": "uint256",
          "name": "created",
          "type": "uint256"
        },
        {
          "internalType": "uint256",
          "name": "answers",
          "type": "uint256"
        },
        {
          "internalType": "string",
          "name": "tags",
          "type": "string"
        }
      ],
      "stateMutability": "view",
      "type": "function"
    },
    {
      "inputs": [
        {
          "internalType": "uint256",
          "name": "id",
          "type": "uint256"
        }
      ],
      "name": "showQuestion",
      "outputs": [
        {
          "components": [
            {
              "internalType": "uint256",
              "name": "id",
              "type": "uint256"
            },
            {
              "internalType": "string",
              "name": "questionTitle",
              "type": "string"
            },
            {
              "internalType": "string",
              "name": "questionDescription",
              "type": "string"
            },
            {
              "internalType": "address",
              "name": "owner",
              "type": "address"
            },
            {
              "internalType": "bool",
              "name": "deleted",
              "type": "bool"
            },
            {
              "internalType": "uint256",
              "name": "updated",
              "type": "uint256"
            },
            {
              "internalType": "uint256",
              "name": "created",
              "type": "uint256"
            },
            {
              "internalType": "uint256",
              "name": "answers",
              "type": "uint256"
            },
            {
              "internalType": "string",
              "name": "tags",
              "type": "string"
            }
          ],
          "internalType": "struct AnswerToEarn.QuestionStruct",
          "name": "",
          "type": "tuple"
        }
      ],
      "stateMutability": "view",
      "type": "function"
    },
    {
      "inputs": [],
      "name": "showQuestions",
      "outputs": [
        {
          "components": [
            {
              "internalType": "uint256",
              "name": "id",
              "type": "uint256"
            },
            {
              "internalType": "string",
              "name": "questionTitle",
              "type": "string"
            },
            {
              "internalType": "string",
              "name": "questionDescription",
              "type": "string"
            },
            {
              "internalType": "address",
              "name": "owner",
              "type": "address"
            },
            {
              "internalType": "bool",
              "name": "deleted",
              "type": "bool"
            },
            {
              "internalType": "uint256",
              "name": "updated",
              "type": "uint256"
            },
            {
              "internalType": "uint256",
              "name": "created",
              "type": "uint256"
            },
            {
              "internalType": "uint256",
              "name": "answers",
              "type": "uint256"
            },
            {
              "internalType": "string",
              "name": "tags",
              "type": "string"
            }
          ],
          "internalType": "struct AnswerToEarn.QuestionStruct[]",
          "name": "propQuestion",
          "type": "tuple[]"
        }
      ],
      "stateMutability": "view",
      "type": "function"
    },
    {
      "inputs": [],
      "name": "totalQuestion",
      "outputs": [
        {
          "internalType": "uint256",
          "name": "",
          "type": "uint256"
        }
      ],
      "stateMutability": "view",
      "type": "function"
    },
    {
      "inputs": [
        {
          "internalType": "uint256",
          "name": "questionId",
          "type": "uint256"
        },
        {
          "internalType": "uint256",
          "name": "id",
          "type": "uint256"
        },
        {
          "internalType": "string",
          "name": "_commentText",
          "type": "string"
        }
      ],
      "name": "updateComment",
      "outputs": [
        {
          "internalType": "bool",
          "name": "",
          "type": "bool"
        }
      ],
      "stateMutability": "nonpayable",
      "type": "function"
    },
    {
      "inputs": [
        {
          "internalType": "uint256",
          "name": "id",
          "type": "uint256"
        },
        {
          "internalType": "string",
          "name": "questionTitle",
          "type": "string"
        },
        {
          "internalType": "string",
          "name": "questionDescription",
          "type": "string"
        },
        {
          "internalType": "string",
          "name": "tags",
          "type": "string"
        }
      ],
      "name": "updateQuestion",
      "outputs": [
        {
          "internalType": "bool",
          "name": "",
          "type": "bool"
        }
      ],
      "stateMutability": "nonpayable",
      "type": "function"
    }
  ],
  "bytecode": "0x608060405234801561001057600080fd5b50600080546001600160a01b03191633179055612309806100326000396000f3fe6080604052600436106100f35760003560e01c806381e1dc941161008a578063be66b5a511610059578063be66b5a5146102c7578063c4e04de1146102f4578063d397b44f14610314578063ef9458ff1461033657600080fd5b806381e1dc941461022f5780638da5cb5b1461024f5780639a3c4c7914610287578063aa7e5683146102a757600080fd5b806331a4bcb5116100c657806331a4bcb51461019a57806331b1b978146101ba57806346362208146101ef5780636619bfda1461020f57600080fd5b806301253520146100f8578063121253e71461012057806318140e0e1461014057806323edf6971461016d575b600080fd5b61010b610106366004611bd2565b61035a565b60405190151581526020015b60405180910390f35b34801561012c57600080fd5b5061010b61013b366004611ca1565b610474565b34801561014c57600080fd5b5061016061015b366004611cf1565b61062b565b6040516101179190611dc7565b34801561017957600080fd5b5061018d610188366004611de1565b610753565b6040516101179190611dfa565b3480156101a657600080fd5b5061010b6101b5366004611cf1565b6108ab565b3480156101c657600080fd5b506101da6101d5366004611de1565b610a49565b60405161011799989796959493929190611e5c565b3480156101fb57600080fd5b5061010b61020a366004611de1565b610c4f565b34801561021b57600080fd5b5061010b61022a366004611edb565b610c89565b34801561023b57600080fd5b5061010b61024a366004611f59565b610eb8565b34801561025b57600080fd5b5060005461026f906001600160a01b031681565b6040516001600160a01b039091168152602001610117565b34801561029357600080fd5b5061010b6102a2366004611de1565b6110ec565b3480156102b357600080fd5b5061010b6102c2366004611feb565b61125b565b3480156102d357600080fd5b506102e76102e2366004611de1565b611434565b60405161011791906120de565b34801561030057600080fd5b5061010b61030f366004611cf1565b611677565b34801561032057600080fd5b506103296116bd565b60405161011791906120f1565b34801561034257600080fd5b5061034c60015481565b604051908152602001610117565b6000813410156103a65760405162461bcd60e51b8152602060048201526012602482015271496e73756666696369656e742066756e642160701b60448201526064015b60405180910390fd5b60008481526002602052604090205460ff166103d45760405162461bcd60e51b815260040161039d90612146565b600484815481106103e7576103e7612172565b60009182526020909120600890910201600301546001600160a01b031633146104225760405162461bcd60e51b815260040161039d90612188565b6000848152600360205260409020805461046a91908590811061044757610447612172565b60009182526020909120600360069092020101546001600160a01b031683611a35565b5060019392505050565b60008381526002602052604081205460ff166104a25760405162461bcd60e51b815260040161039d90612146565b60008481526003602052604090208054849081106104c2576104c2612172565b60009182526020909120600690910201600301546001600160a01b031633146104fd5760405162461bcd60e51b815260040161039d90612188565b60008251116105405760405162461bcd60e51b815260206004820152600f60248201526e5265717569726564206669656c642160881b604482015260640161039d565b600084815260036020526040902080548391908590811061056357610563612172565b90600052602060002090600602016002019080519060200190610587929190611a9a565b5060008481526003602052604090208054429190859081106105ab576105ab612172565b906000526020600020906006020160050181905550336001600160a01b03166000805160206122b48339815191528442604051610619929190918252606060208301819052600f908301526e18dbdb5b595b9d081d5c19185d1959608a1b6080830152604082015260a00190565b60405180910390a25060019392505050565b610633611b1e565b600083815260036020526040902080548390811061065357610653612172565b90600052602060002090600602016040518060e00160405290816000820154815260200160018201548152602001600282018054610690906121b5565b80601f01602080910402602001604051908101604052809291908181526020018280546106bc906121b5565b80156107095780601f106106de57610100808354040283529160200191610709565b820191906000526020600020905b8154815290600101906020018083116106ec57829003601f168201915b505050918352505060038201546001600160a01b0381166020830152600160a01b900460ff1615156040820152600482015460608201526005909101546080909101529392505050565b606060036000838152602001908152602001600020805480602002602001604051908101604052809291908181526020016000905b828210156108a057838290600052602060002090600602016040518060e001604052908160008201548152602001600182015481526020016002820180546107cf906121b5565b80601f01602080910402602001604051908101604052809291908181526020018280546107fb906121b5565b80156108485780601f1061081d57610100808354040283529160200191610848565b820191906000526020600020905b81548152906001019060200180831161082b57829003601f168201915b505050918352505060038201546001600160a01b038116602080840191909152600160a01b90910460ff1615156040830152600483015460608301526005909201546080909101529082526001929092019101610788565b505050509050919050565b60008281526002602052604081205460ff166108d95760405162461bcd60e51b815260040161039d90612146565b60008381526003602052604090208054839081106108f9576108f9612172565b60009182526020909120600690910201600301546001600160a01b031633146109345760405162461bcd60e51b815260040161039d90612188565b60008381526003602052604090208054600191908490811061095857610958612172565b906000526020600020906006020160030160146101000a81548160ff021916908315150217905550426003600085815260200190815260200160002083815481106109a5576109a5612172565b906000526020600020906006020160050181905550600483815481106109cd576109cd612172565b6000918252602082206006600890920201018054916109eb83612206565b909155505060408051838152606060208201819052600f908201526e18dbdb5b595b9d0819195b195d1959608a1b60808201524281830152905133916000805160206122b4833981519152919081900360a00190a250600192915050565b60048181548110610a5957600080fd5b60009182526020909120600890910201805460018201805491935090610a7e906121b5565b80601f0160208091040260200160405190810160405280929190818152602001828054610aaa906121b5565b8015610af75780601f10610acc57610100808354040283529160200191610af7565b820191906000526020600020905b815481529060010190602001808311610ada57829003601f168201915b505050505090806002018054610b0c906121b5565b80601f0160208091040260200160405190810160405280929190818152602001828054610b38906121b5565b8015610b855780601f10610b5a57610100808354040283529160200191610b85565b820191906000526020600020905b815481529060010190602001808311610b6857829003601f168201915b50505050600383015460048401546005850154600686015460078701805496976001600160a01b03861697600160a01b90960460ff169650939492939192610bcc906121b5565b80601f0160208091040260200160405190810160405280929190818152602001828054610bf8906121b5565b8015610c455780601f10610c1a57610100808354040283529160200191610c45565b820191906000526020600020905b815481529060010190602001808311610c2857829003601f168201915b5050505050905089565b600060048281548110610c6457610c64612172565b60009182526020909120600890910201600301546001600160a01b0316331492915050565b600080845111610cab5760405162461bcd60e51b815260040161039d9061221d565b6000835111610ccc5760405162461bcd60e51b815260040161039d9061221d565b6000825111610ced5760405162461bcd60e51b815260040161039d9061221d565b610cf5611b66565b6004546000908152600260205260408120805460ff19166001908117909155805491610d208361224b565b90915550506004805480835260208084018881526040850188905261010085018790523360608601524260a0860181905260c0860152600183018455600093909352835160089092027f8a35acfbc15ff81a39ae7d344fd709f28e8600b4aa8c65c6b64bfe7fe36bd19b8101928355925180518594610dc5937f8a35acfbc15ff81a39ae7d344fd709f28e8600b4aa8c65c6b64bfe7fe36bd19c909101920190611a9a565b5060408201518051610de1916002840191602090910190611a9a565b50606082015160038201805460808501511515600160a01b026001600160a81b03199091166001600160a01b039093169290921791909117905560a0820151600482015560c0820151600582015560e082015160068201556101008201518051610e55916007840191602090910190611a9a565b5050600454604080519182526060602083018190526010908301526f145d595cdd1a5bdb8818dc99585d195960821b608083015242908201523391506000805160206122b48339815191529060a0015b60405180910390a2506001949350505050565b60008481526002602052604081205460ff161515600114610eeb5760405162461bcd60e51b815260040161039d90612266565b6000845111610f0c5760405162461bcd60e51b815260040161039d9061221d565b6000825111610f2d5760405162461bcd60e51b815260040161039d9061221d565b6000835111610f4e5760405162461bcd60e51b815260040161039d9061221d565b60048581548110610f6157610f61612172565b60009182526020909120600890910201600301546001600160a01b03163314610fbe5760405162461bcd60e51b815260206004820152600f60248201526e496e76616c696420616374696f6e2160881b604482015260640161039d565b8360048681548110610fd257610fd2612172565b90600052602060002090600802016001019080519060200190610ff6929190611a9a565b50816004868154811061100b5761100b612172565b9060005260206000209060080201600701908051906020019061102f929190611a9a565b50826004868154811061104457611044612172565b90600052602060002090600802016002019080519060200190611068929190611a9a565b50426004868154811061107d5761107d612172565b906000526020600020906008020160040181905550336001600160a01b03166000805160206122b48339815191528642604051610ea59291909182526060602083018190526010908301526f145d595cdd1a5bdb881d5c19185d195960821b6080830152604082015260a00190565b60006004828154811061110157611101612172565b60009182526020909120600890910201600301546001600160a01b0316331461115e5760405162461bcd60e51b815260206004820152600f60248201526e496e76616c696420616374696f6e2160881b604482015260640161039d565b60008281526002602052604090205460ff1615156001146111915760405162461bcd60e51b815260040161039d90612266565b600180549060006111a183612206565b91905055506001600483815481106111bb576111bb612172565b60009182526020808320600892909202909101600301805460ff60a01b1916600160a01b941515949094029390931790925583815260028252604090819020805460ff19169055805184815260609281018390526010928101929092526f145d595cdd1a5bdb8819195b195d195960821b6080830152429082015233906000805160206122b48339815191529060a00160405180910390a2506001919050565b600060018251116112a05760405162461bcd60e51b815260206004820152600f60248201526e5265717569726564206669656c642160881b604482015260640161039d565b60008381526002602052604090205460ff1615156001146112d35760405162461bcd60e51b815260040161039d90612266565b6112db611b1e565b600084815260036020908152604091829020548352820185905281018390523360608201524260a0820181905260c0820152600480548590811061132157611321612172565b60009182526020822060066008909202010180549161133f8361224b565b9091555050600084815260036020908152604080832080546001818101835591855293839020855160069095020193845584830151908401558301518051849392611391926002850192910190611a9a565b50606082015160038201805460808501511515600160a01b026001600160a81b03199091166001600160a01b039093169290921791909117905560a0820151600482015560c090910151600590910155805160405133916000805160206122b48339815191529161061991904290918252606060208301819052600f908301526e18dbdb5b595b9d0818dc99585d1959608a1b6080830152604082015260a00190565b61143c611b66565b6004828154811061144f5761144f612172565b90600052602060002090600802016040518061012001604052908160008201548152602001600182018054611483906121b5565b80601f01602080910402602001604051908101604052809291908181526020018280546114af906121b5565b80156114fc5780601f106114d1576101008083540402835291602001916114fc565b820191906000526020600020905b8154815290600101906020018083116114df57829003601f168201915b50505050508152602001600282018054611515906121b5565b80601f0160208091040260200160405190810160405280929190818152602001828054611541906121b5565b801561158e5780601f106115635761010080835404028352916020019161158e565b820191906000526020600020905b81548152906001019060200180831161157157829003601f168201915b505050918352505060038201546001600160a01b0381166020830152600160a01b900460ff16151560408201526004820154606082015260058201546080820152600682015460a082015260078201805460c0909201916115ee906121b5565b80601f016020809104026020016040519081016040528092919081815260200182805461161a906121b5565b80156116675780601f1061163c57610100808354040283529160200191611667565b820191906000526020600020905b81548152906001019060200180831161164a57829003601f168201915b5050505050815250509050919050565b600081815260036020526040812080548490811061169757611697612172565b60009182526020909120600690910201600301546001600160a01b031633149392505050565b60606000805b60045481101561172357600481815481106116e0576116e0612172565b906000526020600020906008020160030160149054906101000a900460ff16611711578161170d8161224b565b9250505b8061171b8161224b565b9150506116c3565b508067ffffffffffffffff81111561173d5761173d611bfe565b60405190808252806020026020018201604052801561177657816020015b611763611b66565b81526020019060019003908161175b5790505b5091506000805b600454811015611a2f576004818154811061179a5761179a612172565b906000526020600020906008020160030160149054906101000a900460ff16611a1d57600481815481106117d0576117d0612172565b90600052602060002090600802016040518061012001604052908160008201548152602001600182018054611804906121b5565b80601f0160208091040260200160405190810160405280929190818152602001828054611830906121b5565b801561187d5780601f106118525761010080835404028352916020019161187d565b820191906000526020600020905b81548152906001019060200180831161186057829003601f168201915b50505050508152602001600282018054611896906121b5565b80601f01602080910402602001604051908101604052809291908181526020018280546118c2906121b5565b801561190f5780601f106118e45761010080835404028352916020019161190f565b820191906000526020600020905b8154815290600101906020018083116118f257829003601f168201915b505050918352505060038201546001600160a01b0381166020830152600160a01b900460ff16151560408201526004820154606082015260058201546080820152600682015460a082015260078201805460c09092019161196f906121b5565b80601f016020809104026020016040519081016040528092919081815260200182805461199b906121b5565b80156119e85780601f106119bd576101008083540402835291602001916119e8565b820191906000526020600020905b8154815290600101906020018083116119cb57829003601f168201915b505050505081525050848381518110611a0357611a03612172565b60200260200101819052508180611a199061224b565b9250505b80611a278161224b565b91505061177d565b50505090565b6000826001600160a01b03168260405160006040518083038185875af1925050503d8060008114611a82576040519150601f19603f3d011682016040523d82523d6000602084013e611a87565b606091505b5050905080611a9557600080fd5b505050565b828054611aa6906121b5565b90600052602060002090601f016020900481019282611ac85760008555611b0e565b82601f10611ae157805160ff1916838001178555611b0e565b82800160010185558215611b0e579182015b82811115611b0e578251825591602001919060010190611af3565b50611b1a929150611bbd565b5090565b6040518060e0016040528060008152602001600081526020016060815260200160006001600160a01b0316815260200160001515815260200160008152602001600081525090565b60405180610120016040528060008152602001606081526020016060815260200160006001600160a01b03168152602001600015158152602001600081526020016000815260200160008152602001606081525090565b5b80821115611b1a5760008155600101611bbe565b600080600060608486031215611be757600080fd5b505081359360208301359350604090920135919050565b634e487b7160e01b600052604160045260246000fd5b600082601f830112611c2557600080fd5b813567ffffffffffffffff80821115611c4057611c40611bfe565b604051601f8301601f19908116603f01168101908282118183101715611c6857611c68611bfe565b81604052838152866020858801011115611c8157600080fd5b836020870160208301376000602085830101528094505050505092915050565b600080600060608486031215611cb657600080fd5b8335925060208401359150604084013567ffffffffffffffff811115611cdb57600080fd5b611ce786828701611c14565b9150509250925092565b60008060408385031215611d0457600080fd5b50508035926020909101359150565b6000815180845260005b81811015611d3957602081850181015186830182015201611d1d565b81811115611d4b576000602083870101525b50601f01601f19169290920160200192915050565b80518252602081015160208301526000604082015160e06040850152611d8960e0850182611d13565b6060848101516001600160a01b03169086015260808085015115159086015260a0848101519086015260c09384015193909401929092525090919050565b602081526000611dda6020830184611d60565b9392505050565b600060208284031215611df357600080fd5b5035919050565b6000602080830181845280855180835260408601915060408160051b870101925083870160005b82811015611e4f57603f19888603018452611e3d858351611d60565b94509285019290850190600101611e21565b5092979650505050505050565b60006101208b8352806020840152611e768184018c611d13565b90508281036040840152611e8a818b611d13565b6001600160a01b038a166060850152881515608085015260a0840188905260c0840187905260e084018690528381036101008501529050611ecb8185611d13565b9c9b505050505050505050505050565b600080600060608486031215611ef057600080fd5b833567ffffffffffffffff80821115611f0857600080fd5b611f1487838801611c14565b94506020860135915080821115611f2a57600080fd5b611f3687838801611c14565b93506040860135915080821115611f4c57600080fd5b50611ce786828701611c14565b60008060008060808587031215611f6f57600080fd5b84359350602085013567ffffffffffffffff80821115611f8e57600080fd5b611f9a88838901611c14565b94506040870135915080821115611fb057600080fd5b611fbc88838901611c14565b93506060870135915080821115611fd257600080fd5b50611fdf87828801611c14565b91505092959194509250565b60008060408385031215611ffe57600080fd5b82359150602083013567ffffffffffffffff81111561201c57600080fd5b61202885828601611c14565b9150509250929050565b600061012082518452602083015181602086015261205282860182611d13565b9150506040830151848203604086015261206c8282611d13565b915050606083015161208960608601826001600160a01b03169052565b50608083015161209d608086018215159052565b5060a083015160a085015260c083015160c085015260e083015160e085015261010080840151858303828701526120d48382611d13565b9695505050505050565b602081526000611dda6020830184612032565b6000602080830181845280855180835260408601915060408160051b870101925083870160005b82811015611e4f57603f19888603018452612134858351612032565b94509285019290850190600101612118565b602080825260129082015271145d595cdd1a5bdb881b9bdd08199bdd5b9960721b604082015260600190565b634e487b7160e01b600052603260045260246000fd5b602080825260139082015272556e617574686f72697a656420656e7469747960681b604082015260600190565b600181811c908216806121c957607f821691505b602082108114156121ea57634e487b7160e01b600052602260045260246000fd5b50919050565b634e487b7160e01b600052601160045260246000fd5b600081612215576122156121f0565b506000190190565b60208082526014908201527346696c6c20757020656d707479206669656c647360601b604082015260600190565b600060001982141561225f5761225f6121f0565b5060010190565b6020808252602d908201527f5175657374696f6e20646f6573206e6f74206578697374206f7220686176652060408201526c6265656e2072656d6f7665642160981b60608201526080019056feaee8e5d3bbb2f71a951b5632cee20f7ac487b9f8ab4f66a236f7694b13af7c6aa2646970667358221220886929e7d912c4be3f9b955185ded902798fc1b527c1351e9049148cee54e6f064736f6c634300080b0033",
  "linkReferences": {},
  "deployedLinkReferences": {}
}